{
  "transactions": [
    {
      "hash": "0x8fae7598536dc655b0d529b67c20cd3a2946615bcb365ee8b0b1a7f483fb6fb8",
      "transactionType": "CALL",
      "contractName": null,
      "contractAddress": "0x5FF137D4b0FDCD49DcA30c7CF57E578a026d2789",
      "function": "depositTo(address)",
      "arguments": [
        "0x8b736035BbDA71825e0219f5FE4DfB22C35FbDDC"
      ],
      "transaction": {
        "type": "0x02",
        "from": "0x8b736035bbda71825e0219f5fe4dfb22c35fbddc",
        "to": "0x5ff137d4b0fdcd49dca30c7cf57e578a026d2789",
        "gas": "0x10670",
        "value": "0x16345785d8a0000",
        "data": "0xb760faf90000000000000000000000008b736035bbda71825e0219f5fe4dfb22c35fbddc",
        "nonce": "0x56",
        "accessList": []
      },
      "additionalContracts": [],
      "isFixedGasLimit": false
    },
    {
      "hash": "0x5581ed2fd2aa39b7fe5a05af7e1d7fe0cd830c8247650c9718b55212a1c591f4",
      "transactionType": "CALL",
      "contractName": null,
      "contractAddress": "0x5FF137D4b0FDCD49DcA30c7CF57E578a026d2789",
      "function": "handleOps((address,uint256,bytes,bytes,uint256,uint256,uint256,uint256,uint256,bytes,bytes)[],address)",
      "arguments": [
        "[(0x39F8BA6093f8fB95d9c890767B9f4996cCF63fdd, 0, 0x, 0xd09de08a, 700000, 1000000, 100000, 10000000000, 10000000000, 0x, 0xecadad1ee6af7a5459caa7871c68a60efab22de3bfe5ee6e0aa400e6a57a7f9768ae87d6fd7ad5e1801396e25c73df5a12fa1e4c6fcdbf2acdb9875b6134ede91c)]",
        "0x8b736035BbDA71825e0219f5FE4DfB22C35FbDDC"
      ],
      "transaction": {
        "type": "0x02",
        "from": "0x8b736035bbda71825e0219f5fe4dfb22c35fbddc",
        "to": "0x5ff137d4b0fdcd49dca30c7cf57e578a026d2789",
        "gas": "0x2eafc",
        "value": "0x0",
        "data": "0x1fad948c00000000000000000000000000000000000000000000000000000000000000400000000000000000000000008b736035bbda71825e0219f5fe4dfb22c35fbddc0000000000000000000000000000000000000000000000000000000000000001000000000000000000000000000000000000000000000000000000000000002000000000000000000000000039f8ba6093f8fb95d9c890767b9f4996ccf63fdd00000000000000000000000000000000000000000000000000000000000000000000000000000000000000000000000000000000000000000000000000000160000000000000000000000000000000000000000000000000000000000000018000000000000000000000000000000000000000000000000000000000000aae6000000000000000000000000000000000000000000000000000000000000f424000000000000000000000000000000000000000000000000000000000000186a000000000000000000000000000000000000000000000000000000002540be40000000000000000000000000000000000000000000000000000000002540be40000000000000000000000000000000000000000000000000000000000000001c000000000000000000000000000000000000000000000000000000000000001e000000000000000000000000000000000000000000000000000000000000000000000000000000000000000000000000000000000000000000000000000000004d09de08a0000000000000000000000000000000000000000000000000000000000000000000000000000000000000000000000000000000000000000000000000000000000000000000000000000000000000000000000000000000000000041ecadad1ee6af7a5459caa7871c68a60efab22de3bfe5ee6e0aa400e6a57a7f9768ae87d6fd7ad5e1801396e25c73df5a12fa1e4c6fcdbf2acdb9875b6134ede91c00000000000000000000000000000000000000000000000000000000000000",
        "nonce": "0x57",
        "accessList": []
      },
      "additionalContracts": [],
      "isFixedGasLimit": false
    }
  ],
  "receipts": [
    {
      "transactionHash": "0x8fae7598536dc655b0d529b67c20cd3a2946615bcb365ee8b0b1a7f483fb6fb8",
      "transactionIndex": "0x1",
      "blockHash": "0x785e343440b7a3a7178393cf632c6febd56071f37eefa8cbefcd81244231da75",
      "blockNumber": "0x10c8c47",
      "from": "0x8b736035BbDA71825e0219f5FE4DfB22C35FbDDC",
      "to": "0x5FF137D4b0FDCD49DcA30c7CF57E578a026d2789",
      "cumulativeGasUsed": "0x15ea5",
      "gasUsed": "0xb372",
      "contractAddress": null,
      "logs": [
        {
          "address": "0x5FF137D4b0FDCD49DcA30c7CF57E578a026d2789",
          "topics": [
            "0x2da466a7b24304f47e87fa2e1e5a81b9831ce54fec19055ce277ca2f39ba42c4",
            "0x0000000000000000000000008b736035bbda71825e0219f5fe4dfb22c35fbddc"
          ],
          "data": "0x000000000000000000000000000000000000000000000000016345785d8a0000",
          "blockHash": "0x785e343440b7a3a7178393cf632c6febd56071f37eefa8cbefcd81244231da75",
          "blockNumber": "0x10c8c47",
          "transactionHash": "0x8fae7598536dc655b0d529b67c20cd3a2946615bcb365ee8b0b1a7f483fb6fb8",
          "transactionIndex": "0x1",
          "logIndex": "0x0",
          "removed": false
        }
      ],
      "status": "0x1",
      "logsBloom": "0x00000000000000001000000000000000000000000000000000000000000000000000000000000000000200000000000000100000000000000000000000000000000000000000002000000000000000000000000000000000000000000000200000000000080000000000000000000000000000000000000000000000000200000000000000000000000000000000000000000000000000000000000000000000000000000000001000000000000000000000000000000000000000000000000000000000000000000000000000000000000000000000000000000000000000000040000000000000000000000000000000000000000000000000000000000000",
      "type": "0x2",
      "effectiveGasPrice": "0xb2d05f37"
    }
  ],
  "libraries": [],
  "pending": [],
  "returns": {},
  "timestamp": 1730967412,
  "chain": 84532,
  "multi": false,
  "commit": "3248229"
}