{
  "transactions": [
    {
      "hash": "0xd671e7606125ec0a53b7e3a926c3bfa299ef067f266183b8c06f414ce4f1b4cb",
      "transactionType": "CALL",
      "contractName": null,
      "contractAddress": "0x5FF137D4b0FDCD49DcA30c7CF57E578a026d2789",
      "function": "depositTo(address)",
      "arguments": [
        "0x39F8BA6093f8fB95d9c890767B9f4996cCF63fdd"
      ],
      "transaction": {
        "type": "0x02",
        "from": "0x8b736035bbda71825e0219f5fe4dfb22c35fbddc",
        "to": "0x5ff137d4b0fdcd49dca30c7cf57e578a026d2789",
        "gas": "0x10670",
        "value": "0x2386f26fc10000",
        "data": "0xb760faf900000000000000000000000039f8ba6093f8fb95d9c890767b9f4996ccf63fdd",
        "nonce": "0x4e",
        "accessList": []
      },
      "additionalContracts": [],
      "isFixedGasLimit": false
    },
    {
      "hash": "0x3ebd5a4e05cd818dbaabe9974a53b216a9e030973b7d8cc9213e1d28dcdd7ad0",
      "transactionType": "CALL",
      "contractName": null,
      "contractAddress": "0x5FF137D4b0FDCD49DcA30c7CF57E578a026d2789",
      "function": "handleOps((address,uint256,bytes,bytes,uint256,uint256,uint256,uint256,uint256,bytes,bytes)[],address)",
      "arguments": [
        "[(0x39F8BA6093f8fB95d9c890767B9f4996cCF63fdd, 0, 0x, 0xd09de08a, 70000, 1000000, 0, 2, 1, 0x, 0xbc12702757b2b22472cf441e2f7bc21aa62729bee550f74b1883b6e8683722e366d7d6c1701bc1f7ecbe674e3da78182d74411a05234db6083fb8d56eb4b0e5e1c)]",
        "0x8b736035BbDA71825e0219f5FE4DfB22C35FbDDC"
      ],
      "transaction": {
        "type": "0x02",
        "from": "0x8b736035bbda71825e0219f5fe4dfb22c35fbddc",
        "to": "0x5ff137d4b0fdcd49dca30c7cf57e578a026d2789",
        "gas": "0x2c126",
        "value": "0x0",
        "data": "0x1fad948c00000000000000000000000000000000000000000000000000000000000000400000000000000000000000008b736035bbda71825e0219f5fe4dfb22c35fbddc0000000000000000000000000000000000000000000000000000000000000001000000000000000000000000000000000000000000000000000000000000002000000000000000000000000039f8ba6093f8fb95d9c890767b9f4996ccf63fdd000000000000000000000000000000000000000000000000000000000000000000000000000000000000000000000000000000000000000000000000000001600000000000000000000000000000000000000000000000000000000000000180000000000000000000000000000000000000000000000000000000000001117000000000000000000000000000000000000000000000000000000000000f424000000000000000000000000000000000000000000000000000000000000000000000000000000000000000000000000000000000000000000000000000000002000000000000000000000000000000000000000000000000000000000000000100000000000000000000000000000000000000000000000000000000000001c000000000000000000000000000000000000000000000000000000000000001e000000000000000000000000000000000000000000000000000000000000000000000000000000000000000000000000000000000000000000000000000000004d09de08a0000000000000000000000000000000000000000000000000000000000000000000000000000000000000000000000000000000000000000000000000000000000000000000000000000000000000000000000000000000000000041bc12702757b2b22472cf441e2f7bc21aa62729bee550f74b1883b6e8683722e366d7d6c1701bc1f7ecbe674e3da78182d74411a05234db6083fb8d56eb4b0e5e1c00000000000000000000000000000000000000000000000000000000000000",
        "nonce": "0x4f",
        "accessList": []
      },
      "additionalContracts": [],
      "isFixedGasLimit": false
    }
  ],
  "receipts": [
    {
      "transactionHash": "0xd671e7606125ec0a53b7e3a926c3bfa299ef067f266183b8c06f414ce4f1b4cb",
      "transactionIndex": "0x1",
      "blockHash": "0x28df111dc39d0e4b35fce971a6c87e65ed5f5066f8fe0258c272e1a6f5621099",
      "blockNumber": "0x10c866b",
      "from": "0x8b736035BbDA71825e0219f5FE4DfB22C35FbDDC",
      "to": "0x5FF137D4b0FDCD49DcA30c7CF57E578a026d2789",
      "cumulativeGasUsed": "0x15eb1",
      "gasUsed": "0xb372",
      "contractAddress": null,
      "logs": [
        {
          "address": "0x5FF137D4b0FDCD49DcA30c7CF57E578a026d2789",
          "topics": [
            "0x2da466a7b24304f47e87fa2e1e5a81b9831ce54fec19055ce277ca2f39ba42c4",
            "0x00000000000000000000000039f8ba6093f8fb95d9c890767b9f4996ccf63fdd"
          ],
          "data": "0x000000000000000000000000000000000000000000000000002386f26fc10000",
          "blockHash": "0x28df111dc39d0e4b35fce971a6c87e65ed5f5066f8fe0258c272e1a6f5621099",
          "blockNumber": "0x10c866b",
          "transactionHash": "0xd671e7606125ec0a53b7e3a926c3bfa299ef067f266183b8c06f414ce4f1b4cb",
          "transactionIndex": "0x1",
          "logIndex": "0x0",
          "removed": false
        }
      ],
      "status": "0x1",
      "logsBloom": "0x00000000000000000000000000000000000000000000000000000000000000000000000000000000000200000000000000100000000000000000000000000000000000000000000000000000001000000000000000000000000000000000200000000000080000000000000000000000000000000000000000020000000200000000000000000000000000000000000000000000000000000000000000000000000000000000000000000000000000000000000000000000000000000000000000000000000000000000000000000000000000000000000000000000020000000040000000000000000000000000000000000000000000000000000000000000",
      "type": "0x2",
      "effectiveGasPrice": "0xb2d05f5a"
    }
  ],
  "libraries": [],
  "pending": [],
  "returns": {},
  "timestamp": 1730964412,
  "chain": 84532,
  "multi": false,
  "commit": "3248229"
}