{
  "transactions": [
    {
      "hash": "0xbda8dfc29c48d13869fd5ea97e5338c39d64caa92028a456826085f2ab8707a0",
      "transactionType": "CALL",
      "contractName": null,
      "contractAddress": "0x5FF137D4b0FDCD49DcA30c7CF57E578a026d2789",
      "function": "handleOps((address,uint256,bytes,bytes,uint256,uint256,uint256,uint256,uint256,bytes,bytes)[],address)",
      "arguments": [
        "[(0x39F8BA6093f8fB95d9c890767B9f4996cCF63fdd, 0, 0x, 0xd09de08a, 700000, 1000000, 100000, 10000000000, 10000000000, 0x, 0xecadad1ee6af7a5459caa7871c68a60efab22de3bfe5ee6e0aa400e6a57a7f9768ae87d6fd7ad5e1801396e25c73df5a12fa1e4c6fcdbf2acdb9875b6134ede91c)]",
        "0x8b736035BbDA71825e0219f5FE4DfB22C35FbDDC"
      ],
      "transaction": {
        "type": "0x02",
        "from": "0x8b736035bbda71825e0219f5fe4dfb22c35fbddc",
        "to": "0x5ff137d4b0fdcd49dca30c7cf57e578a026d2789",
        "gas": "0x2eafc",
        "value": "0x0",
        "data": "0x1fad948c00000000000000000000000000000000000000000000000000000000000000400000000000000000000000008b736035bbda71825e0219f5fe4dfb22c35fbddc0000000000000000000000000000000000000000000000000000000000000001000000000000000000000000000000000000000000000000000000000000002000000000000000000000000039f8ba6093f8fb95d9c890767b9f4996ccf63fdd00000000000000000000000000000000000000000000000000000000000000000000000000000000000000000000000000000000000000000000000000000160000000000000000000000000000000000000000000000000000000000000018000000000000000000000000000000000000000000000000000000000000aae6000000000000000000000000000000000000000000000000000000000000f424000000000000000000000000000000000000000000000000000000000000186a000000000000000000000000000000000000000000000000000000002540be40000000000000000000000000000000000000000000000000000000002540be40000000000000000000000000000000000000000000000000000000000000001c000000000000000000000000000000000000000000000000000000000000001e000000000000000000000000000000000000000000000000000000000000000000000000000000000000000000000000000000000000000000000000000000004d09de08a0000000000000000000000000000000000000000000000000000000000000000000000000000000000000000000000000000000000000000000000000000000000000000000000000000000000000000000000000000000000000041ecadad1ee6af7a5459caa7871c68a60efab22de3bfe5ee6e0aa400e6a57a7f9768ae87d6fd7ad5e1801396e25c73df5a12fa1e4c6fcdbf2acdb9875b6134ede91c00000000000000000000000000000000000000000000000000000000000000",
        "nonce": "0x55",
        "accessList": []
      },
      "additionalContracts": [],
      "isFixedGasLimit": false
    }
  ],
  "receipts": [],
  "libraries": [],
  "pending": [],
  "returns": {},
  "timestamp": 1730967358,
  "chain": 84532,
  "multi": false,
  "commit": "3248229"
}