{
  "transactions": [
    {
      "hash": "0x94a220ee919ddf47e04b47586666940a950c2c8fb80436d1aeec3edd05c5467c",
      "transactionType": "CALL",
      "contractName": null,
      "contractAddress": "0x5FF137D4b0FDCD49DcA30c7CF57E578a026d2789",
      "function": "handleOps((address,uint256,bytes,bytes,uint256,uint256,uint256,uint256,uint256,bytes,bytes)[],address)",
      "arguments": [
        "[(0x39F8BA6093f8fB95d9c890767B9f4996cCF63fdd, 0, 0x, 0xd09de08a, 2000000, 3000000, 100000, 1000000000, 1000000000, 0x, 0xa3f3dc7b63da299aed3176e0eaea4d1c3f496a5b2362a56e0fbfe8adf1e357ab21da26d34961071a3cbaad7d91916484a2b8c25425de2acc5c31b3efe097952b1c)]",
        "0x8b736035BbDA71825e0219f5FE4DfB22C35FbDDC"
      ],
      "transaction": {
        "type": "0x02",
        "from": "0x8b736035bbda71825e0219f5fe4dfb22c35fbddc",
        "to": "0x5ff137d4b0fdcd49dca30c7cf57e578a026d2789",
        "gas": "0x1312d00",
        "value": "0x0",
        "data": "0x1fad948c00000000000000000000000000000000000000000000000000000000000000400000000000000000000000008b736035bbda71825e0219f5fe4dfb22c35fbddc0000000000000000000000000000000000000000000000000000000000000001000000000000000000000000000000000000000000000000000000000000002000000000000000000000000039f8ba6093f8fb95d9c890767b9f4996ccf63fdd00000000000000000000000000000000000000000000000000000000000000000000000000000000000000000000000000000000000000000000000000000160000000000000000000000000000000000000000000000000000000000000018000000000000000000000000000000000000000000000000000000000001e848000000000000000000000000000000000000000000000000000000000002dc6c000000000000000000000000000000000000000000000000000000000000186a0000000000000000000000000000000000000000000000000000000003b9aca00000000000000000000000000000000000000000000000000000000003b9aca0000000000000000000000000000000000000000000000000000000000000001c000000000000000000000000000000000000000000000000000000000000001e000000000000000000000000000000000000000000000000000000000000000000000000000000000000000000000000000000000000000000000000000000004d09de08a0000000000000000000000000000000000000000000000000000000000000000000000000000000000000000000000000000000000000000000000000000000000000000000000000000000000000000000000000000000000000041a3f3dc7b63da299aed3176e0eaea4d1c3f496a5b2362a56e0fbfe8adf1e357ab21da26d34961071a3cbaad7d91916484a2b8c25425de2acc5c31b3efe097952b1c00000000000000000000000000000000000000000000000000000000000000",
        "nonce": "0x58",
        "accessList": []
      },
      "additionalContracts": [],
      "isFixedGasLimit": true
    }
  ],
  "receipts": [],
  "libraries": [],
  "pending": [
    "0x94a220ee919ddf47e04b47586666940a950c2c8fb80436d1aeec3edd05c5467c"
  ],
  "returns": {},
  "timestamp": 1730967819,
  "chain": 84532,
  "multi": false,
  "commit": "3248229"
}