{
  "transactions": [
    {
      "hash": "0xeb9010bd5a9c82a28b99177739e27bc3186b9a20cbac574af041d3c726f15a35",
      "transactionType": "CALL",
      "contractName": null,
      "contractAddress": "0x5FF137D4b0FDCD49DcA30c7CF57E578a026d2789",
      "function": "depositTo(address)",
      "arguments": [
        "0x39F8BA6093f8fB95d9c890767B9f4996cCF63fdd"
      ],
      "transaction": {
        "type": "0x02",
        "from": "0x8b736035bbda71825e0219f5fe4dfb22c35fbddc",
        "to": "0x5ff137d4b0fdcd49dca30c7cf57e578a026d2789",
        "gas": "0x9b98",
        "value": "0x16345785d8a0000",
        "data": "0xb760faf900000000000000000000000039f8ba6093f8fb95d9c890767b9f4996ccf63fdd",
        "nonce": "0x53",
        "accessList": []
      },
      "additionalContracts": [],
      "isFixedGasLimit": false
    },
    {
      "hash": "0x64c68bc559cd03c5a8b394e6332a7a1dbf3232eca5e564847aacbf21ecabdbdb",
      "transactionType": "CALL",
      "contractName": null,
      "contractAddress": "0x5FF137D4b0FDCD49DcA30c7CF57E578a026d2789",
      "function": "handleOps((address,uint256,bytes,bytes,uint256,uint256,uint256,uint256,uint256,bytes,bytes)[],address)",
      "arguments": [
        "[(0x39F8BA6093f8fB95d9c890767B9f4996cCF63fdd, 0, 0x, 0xd09de08a, 700000, 1000000, 0, 10000000000, 10000000000, 0x, 0x1aa651a75467a3133b2a3efe4324266be60a8794d1a2713a36feb1a829520f79539a3772c43ac11a228a28a9cb555946719c3893cc610f92a722cc8300ca4ce71b)]",
        "0x8b736035BbDA71825e0219f5FE4DfB22C35FbDDC"
      ],
      "transaction": {
        "type": "0x02",
        "from": "0x8b736035bbda71825e0219f5fe4dfb22c35fbddc",
        "to": "0x5ff137d4b0fdcd49dca30c7cf57e578a026d2789",
        "gas": "0x2c14a",
        "value": "0x0",
        "data": "0x1fad948c00000000000000000000000000000000000000000000000000000000000000400000000000000000000000008b736035bbda71825e0219f5fe4dfb22c35fbddc0000000000000000000000000000000000000000000000000000000000000001000000000000000000000000000000000000000000000000000000000000002000000000000000000000000039f8ba6093f8fb95d9c890767b9f4996ccf63fdd00000000000000000000000000000000000000000000000000000000000000000000000000000000000000000000000000000000000000000000000000000160000000000000000000000000000000000000000000000000000000000000018000000000000000000000000000000000000000000000000000000000000aae6000000000000000000000000000000000000000000000000000000000000f4240000000000000000000000000000000000000000000000000000000000000000000000000000000000000000000000000000000000000000000000002540be40000000000000000000000000000000000000000000000000000000002540be40000000000000000000000000000000000000000000000000000000000000001c000000000000000000000000000000000000000000000000000000000000001e000000000000000000000000000000000000000000000000000000000000000000000000000000000000000000000000000000000000000000000000000000004d09de08a00000000000000000000000000000000000000000000000000000000000000000000000000000000000000000000000000000000000000000000000000000000000000000000000000000000000000000000000000000000000000411aa651a75467a3133b2a3efe4324266be60a8794d1a2713a36feb1a829520f79539a3772c43ac11a228a28a9cb555946719c3893cc610f92a722cc8300ca4ce71b00000000000000000000000000000000000000000000000000000000000000",
        "nonce": "0x54",
        "accessList": []
      },
      "additionalContracts": [],
      "isFixedGasLimit": false
    }
  ],
  "receipts": [
    {
      "transactionHash": "0xeb9010bd5a9c82a28b99177739e27bc3186b9a20cbac574af041d3c726f15a35",
      "transactionIndex": "0x1",
      "blockHash": "0xd809291b23b7fdff5cfd9f97bea55651cd9bd1d88b779f7a427e3e3b3e4187f3",
      "blockNumber": "0x10c8b52",
      "from": "0x8b736035BbDA71825e0219f5FE4DfB22C35FbDDC",
      "to": "0x5FF137D4b0FDCD49DcA30c7CF57E578a026d2789",
      "cumulativeGasUsed": "0x11bd9",
      "gasUsed": "0x70a6",
      "contractAddress": null,
      "logs": [
        {
          "address": "0x5FF137D4b0FDCD49DcA30c7CF57E578a026d2789",
          "topics": [
            "0x2da466a7b24304f47e87fa2e1e5a81b9831ce54fec19055ce277ca2f39ba42c4",
            "0x00000000000000000000000039f8ba6093f8fb95d9c890767b9f4996ccf63fdd"
          ],
          "data": "0x0000000000000000000000000000000000000000000000000186cc6acd4b0000",
          "blockHash": "0xd809291b23b7fdff5cfd9f97bea55651cd9bd1d88b779f7a427e3e3b3e4187f3",
          "blockNumber": "0x10c8b52",
          "transactionHash": "0xeb9010bd5a9c82a28b99177739e27bc3186b9a20cbac574af041d3c726f15a35",
          "transactionIndex": "0x1",
          "logIndex": "0x0",
          "removed": false
        }
      ],
      "status": "0x1",
      "logsBloom": "0x00000000000000000000000000000000000000000000000000000000000000000000000000000000000200000000000000100000000000000000000000000000000000000000000000000000001000000000000000000000000000000000200000000000080000000000000000000000000000000000000000020000000200000000000000000000000000000000000000000000000000000000000000000000000000000000000000000000000000000000000000000000000000000000000000000000000000000000000000000000000000000000000000000000020000000040000000000000000000000000000000000000000000000000000000000000",
      "type": "0x2",
      "effectiveGasPrice": "0xb2d05f5e"
    }
  ],
  "libraries": [],
  "pending": [],
  "returns": {},
  "timestamp": 1730966921,
  "chain": 84532,
  "multi": false,
  "commit": "3248229"
}